:03000000020006F5
:03005F0002000399
:0300030002007484
:10006200AE82AF838E048F051EBEFF011FEC4D7062
:10007200F322C280904E20120062D280904E201253
:04008200006280EEAA
:06003500E478FFF6D8FD9F
:100013007900E94400601B7A0090008A780175A09A
:1000230000E493F2A308B8000205A0D9F4DAF2754C
:02003300A0FF2C
:10003B007800E84400600A790175A000E4F309D860
:10004B00FC7800E84400600C7900900001E4F0A318
:04005B00D8FCD9FAFA
:0D000600758107120086E582600302000389
:04008600758200225D
:00000001FF
